{
  "contractName": "Student",
  "abi": [
    {
      "inputs": [],
      "stateMutability": "nonpayable",
      "type": "constructor"
    },
    {
      "anonymous": false,
      "inputs": [
        {
          "indexed": true,
          "internalType": "address",
          "name": "voter",
          "type": "address"
        },
        {
          "indexed": true,
          "internalType": "uint256",
          "name": "candidateId",
          "type": "uint256"
        },
        {
          "indexed": true,
          "internalType": "uint256",
          "name": "voteId",
          "type": "uint256"
        }
      ],
      "name": "VoteCast",
      "type": "event"
    },
    {
      "inputs": [],
      "name": "voteCount",
      "outputs": [
        {
          "internalType": "uint256",
          "name": "",
          "type": "uint256"
        }
      ],
      "stateMutability": "view",
      "type": "function"
    },
    {
      "inputs": [
        {
          "internalType": "address",
          "name": "",
          "type": "address"
        }
      ],
      "name": "voters",
      "outputs": [
        {
          "internalType": "bool",
          "name": "",
          "type": "bool"
        }
      ],
      "stateMutability": "view",
      "type": "function"
    },
    {
      "inputs": [
        {
          "internalType": "uint256",
          "name": "",
          "type": "uint256"
        }
      ],
      "name": "votes",
      "outputs": [
        {
          "internalType": "address",
          "name": "voter",
          "type": "address"
        },
        {
          "internalType": "uint256",
          "name": "candidateId",
          "type": "uint256"
        },
        {
          "internalType": "uint256",
          "name": "voteId",
          "type": "uint256"
        }
      ],
      "stateMutability": "view",
      "type": "function"
    },
    {
      "inputs": [
        {
          "internalType": "uint256",
          "name": "candidateId",
          "type": "uint256"
        },
        {
          "internalType": "uint256",
          "name": "voteId",
          "type": "uint256"
        }
      ],
      "name": "vote",
      "outputs": [],
      "stateMutability": "nonpayable",
      "type": "function"
    },
    {
      "inputs": [
        {
          "internalType": "uint256",
          "name": "index",
          "type": "uint256"
        }
      ],
      "name": "getVote",
      "outputs": [
        {
          "internalType": "address",
          "name": "",
          "type": "address"
        },
        {
          "internalType": "uint256",
          "name": "",
          "type": "uint256"
        },
        {
          "internalType": "uint256",
          "name": "",
          "type": "uint256"
        }
      ],
      "stateMutability": "view",
      "type": "function"
    }
  ],
  "bytecode": "0x608060405234801561000f575f80fd5b5060016002819055506107a2806100255f395ff3fe608060405234801561000f575f80fd5b5060043610610055575f3560e01c80635a55c1f0146100595780635df813301461008b578063a3ec138d146100bd578063b384abef146100ed578063c638407114610109575b5f80fd5b610073600480360381019061006e919061048b565b610127565b60405161008293929190610504565b60405180910390f35b6100a560048036038101906100a0919061048b565b610211565b6040516100b493929190610504565b60405180910390f35b6100d760048036038101906100d29190610563565b610256565b6040516100e491906105a8565b60405180910390f35b610107600480360381019061010291906105c1565b610272565b005b61011161044e565b60405161011e91906105ff565b60405180910390f35b5f805f600254841061016e576040517f08c379a000000000000000000000000000000000000000000000000000000000815260040161016590610672565b60405180910390fd5b5f60015f8681526020019081526020015f206040518060600160405290815f82015f9054906101000a900473ffffffffffffffffffffffffffffffffffffffff1673ffffffffffffffffffffffffffffffffffffffff1673ffffffffffffffffffffffffffffffffffffffff168152602001600182015481526020016002820154815250509050805f015181602001518260400151935093509350509193909250565b6001602052805f5260405f205f91509050805f015f9054906101000a900473ffffffffffffffffffffffffffffffffffffffff16908060010154908060020154905083565b5f602052805f5260405f205f915054906101000a900460ff1681565b5f803373ffffffffffffffffffffffffffffffffffffffff1673ffffffffffffffffffffffffffffffffffffffff1681526020019081526020015f205f9054906101000a900460ff16156102fb576040517f08c379a00000000000000000000000000000000000000000000000000000000081526004016102f2906106da565b60405180910390fd5b60015f803373ffffffffffffffffffffffffffffffffffffffff1673ffffffffffffffffffffffffffffffffffffffff1681526020019081526020015f205f6101000a81548160ff02191690831515021790555060405180606001604052803373ffffffffffffffffffffffffffffffffffffffff1681526020018381526020018281525060015f60025481526020019081526020015f205f820151815f015f6101000a81548173ffffffffffffffffffffffffffffffffffffffff021916908373ffffffffffffffffffffffffffffffffffffffff160217905550602082015181600101556040820151816002015590505080823373ffffffffffffffffffffffffffffffffffffffff167fb4cfecf70861b7b150d8337780d34fb4cbc2114b5fb1fe51a5c5fca1849f727460405160405180910390a460025f81548092919061044590610725565b91905055505050565b60025481565b5f80fd5b5f819050919050565b61046a81610458565b8114610474575f80fd5b50565b5f8135905061048581610461565b92915050565b5f602082840312156104a05761049f610454565b5b5f6104ad84828501610477565b91505092915050565b5f73ffffffffffffffffffffffffffffffffffffffff82169050919050565b5f6104df826104b6565b9050919050565b6104ef816104d5565b82525050565b6104fe81610458565b82525050565b5f6060820190506105175f8301866104e6565b61052460208301856104f5565b61053160408301846104f5565b949350505050565b610542816104d5565b811461054c575f80fd5b50565b5f8135905061055d81610539565b92915050565b5f6020828403121561057857610577610454565b5b5f6105858482850161054f565b91505092915050565b5f8115159050919050565b6105a28161058e565b82525050565b5f6020820190506105bb5f830184610599565b92915050565b5f80604083850312156105d7576105d6610454565b5b5f6105e485828601610477565b92505060206105f585828601610477565b9150509250929050565b5f6020820190506106125f8301846104f5565b92915050565b5f82825260208201905092915050565b7f496e76616c696420766f746520696e6465782e000000000000000000000000005f82015250565b5f61065c601383610618565b915061066782610628565b602082019050919050565b5f6020820190508181035f83015261068981610650565b9050919050565b7f596f75206861766520616c726561647920766f7465642e0000000000000000005f82015250565b5f6106c4601783610618565b91506106cf82610690565b602082019050919050565b5f6020820190508181035f8301526106f1816106b8565b9050919050565b7f4e487b71000000000000000000000000000000000000000000000000000000005f52601160045260245ffd5b5f61072f82610458565b91507fffffffffffffffffffffffffffffffffffffffffffffffffffffffffffffffff8203610761576107606106f8565b5b60018201905091905056fea26469706673582212204e40cfe3a6bcbba1c75732397bc92a1782f681c39f1e52a90a994dc40ad7951064736f6c63430008150033",
  "immutableReferences": {},
  "source": "//SPDX-License-Identifier: UNLICENSED\r\npragma solidity ^0.8.0;\r\n\r\ncontract Student {\r\n    struct Vote {\r\n        address voter;\r\n        uint256 candidateId;\r\n        uint256 voteId;\r\n    }\r\n\r\n    mapping(address => bool) public voters;\r\n    mapping(uint256 => Vote) public votes;\r\n    uint256 public voteCount;\r\n\r\n    event VoteCast(address indexed voter, uint256 indexed candidateId, uint256 indexed voteId);\r\n\r\n    constructor() {\r\n        voteCount = 1; // Initialize vote count to 1\r\n    }\r\n\r\n    function vote(uint256 candidateId, uint256 voteId) public {\r\n        require(!voters[msg.sender], \"You have already voted.\");\r\n        voters[msg.sender] = true;\r\n        votes[voteCount] = Vote(msg.sender, candidateId, voteId);\r\n        emit VoteCast(msg.sender, candidateId, voteId);\r\n        voteCount++; // Increment vote count after storing the vote\r\n    }\r\n\r\n    function getVote(uint256 index) public view returns (address, uint256, uint256) {\r\n        require(index < voteCount, \"Invalid vote index.\");\r\n        // Retrieve the vote based on the provided index\r\n        Vote memory _vote = votes[index];\r\n        return (_vote.voter, _vote.candidateId, _vote.voteId);\r\n    }\r\n}\r\n",
  "sourcePath": "C:\\Users\\Chris\\Desktop\\bda\\contracts\\student.sol",
  "compiler": {
    "name": "solc",
    "version": "0.8.21+commit.d9974bed.Emscripten.clang"
  },
  "schemaVersion": "3.4.16",
  "updatedAt": "2024-05-16T17:39:38.748Z",
  "devdoc": {
    "kind": "dev",
    "methods": {},
    "version": 1
  },
  "userdoc": {
    "kind": "user",
    "methods": {},
    "version": 1
  }
}