{
  "contractName": "Voting",
  "abi": [
    {
      "inputs": [],
      "stateMutability": "nonpayable",
      "type": "constructor"
    },
    {
      "anonymous": false,
      "inputs": [
        {
          "indexed": true,
          "internalType": "address",
          "name": "voter",
          "type": "address"
        },
        {
          "indexed": true,
          "internalType": "uint256",
          "name": "candidateId",
          "type": "uint256"
        },
        {
          "indexed": true,
          "internalType": "uint256",
          "name": "voteId",
          "type": "uint256"
        }
      ],
      "name": "VoteCast",
      "type": "event"
    },
    {
      "inputs": [],
      "name": "voteCount",
      "outputs": [
        {
          "internalType": "uint256",
          "name": "",
          "type": "uint256"
        }
      ],
      "stateMutability": "view",
      "type": "function",
      "constant": true
    },
    {
      "inputs": [
        {
          "internalType": "address",
          "name": "",
          "type": "address"
        }
      ],
      "name": "voters",
      "outputs": [
        {
          "internalType": "bool",
          "name": "",
          "type": "bool"
        }
      ],
      "stateMutability": "view",
      "type": "function",
      "constant": true
    },
    {
      "inputs": [
        {
          "internalType": "uint256",
          "name": "",
          "type": "uint256"
        }
      ],
      "name": "votes",
      "outputs": [
        {
          "internalType": "address",
          "name": "voter",
          "type": "address"
        },
        {
          "internalType": "uint256",
          "name": "candidateId",
          "type": "uint256"
        },
        {
          "internalType": "uint256",
          "name": "voteId",
          "type": "uint256"
        }
      ],
      "stateMutability": "view",
      "type": "function",
      "constant": true
    },
    {
      "inputs": [
        {
          "internalType": "uint256",
          "name": "candidateId",
          "type": "uint256"
        },
        {
          "internalType": "uint256",
          "name": "voteId",
          "type": "uint256"
        }
      ],
      "name": "vote",
      "outputs": [],
      "stateMutability": "nonpayable",
      "type": "function"
    },
    {
      "inputs": [
        {
          "internalType": "uint256",
          "name": "index",
          "type": "uint256"
        }
      ],
      "name": "getVote",
      "outputs": [
        {
          "internalType": "address",
          "name": "",
          "type": "address"
        },
        {
          "internalType": "uint256",
          "name": "",
          "type": "uint256"
        },
        {
          "internalType": "uint256",
          "name": "",
          "type": "uint256"
        }
      ],
      "stateMutability": "view",
      "type": "function",
      "constant": true
    }
  ],
  "bytecode": "0x608060405234801561001057600080fd5b5060016002819055506107bb806100286000396000f3fe608060405234801561001057600080fd5b50600436106100575760003560e01c80635a55c1f01461005c5780635df813301461008e578063a3ec138d146100c0578063b384abef146100f0578063c63840711461010c575b600080fd5b610076600480360381019061007191906104c7565b61012a565b604051610085939291906105d9565b60405180910390f35b6100a860048036038101906100a391906104c7565b61021c565b6040516100b7939291906105d9565b60405180910390f35b6100da60048036038101906100d5919061049e565b610266565b6040516100e79190610610565b60405180910390f35b61010a600480360381019061010591906104f0565b610286565b005b61011461046e565b604051610121919061066b565b60405180910390f35b60008060006002548410610173576040517f08c379a000000000000000000000000000000000000000000000000000000000815260040161016a9061064b565b60405180910390fd5b6000600160008681526020019081526020016000206040518060600160405290816000820160009054906101000a900473ffffffffffffffffffffffffffffffffffffffff1673ffffffffffffffffffffffffffffffffffffffff1673ffffffffffffffffffffffffffffffffffffffff168152602001600182015481526020016002820154815250509050806000015181602001518260400151935093509350509193909250565b60016020528060005260406000206000915090508060000160009054906101000a900473ffffffffffffffffffffffffffffffffffffffff16908060010154908060020154905083565b60006020528060005260406000206000915054906101000a900460ff1681565b6000803373ffffffffffffffffffffffffffffffffffffffff1673ffffffffffffffffffffffffffffffffffffffff16815260200190815260200160002060009054906101000a900460ff1615610312576040517f08c379a00000000000000000000000000000000000000000000000000000000081526004016103099061062b565b60405180910390fd5b60016000803373ffffffffffffffffffffffffffffffffffffffff1673ffffffffffffffffffffffffffffffffffffffff16815260200190815260200160002060006101000a81548160ff02191690831515021790555060405180606001604052803373ffffffffffffffffffffffffffffffffffffffff1681526020018381526020018281525060016000600254815260200190815260200160002060008201518160000160006101000a81548173ffffffffffffffffffffffffffffffffffffffff021916908373ffffffffffffffffffffffffffffffffffffffff160217905550602082015181600101556040820151816002015590505080823373ffffffffffffffffffffffffffffffffffffffff167fb4cfecf70861b7b150d8337780d34fb4cbc2114b5fb1fe51a5c5fca1849f727460405160405180910390a460026000815480929190610465906106df565b91905055505050565b60025481565b60008135905061048381610757565b92915050565b6000813590506104988161076e565b92915050565b6000602082840312156104b057600080fd5b60006104be84828501610474565b91505092915050565b6000602082840312156104d957600080fd5b60006104e784828501610489565b91505092915050565b6000806040838503121561050357600080fd5b600061051185828601610489565b925050602061052285828601610489565b9150509250929050565b61053581610697565b82525050565b610544816106a9565b82525050565b6000610557601783610686565b91507f596f75206861766520616c726561647920766f7465642e0000000000000000006000830152602082019050919050565b6000610597601383610686565b91507f496e76616c696420766f746520696e6465782e000000000000000000000000006000830152602082019050919050565b6105d3816106d5565b82525050565b60006060820190506105ee600083018661052c565b6105fb60208301856105ca565b61060860408301846105ca565b949350505050565b6000602082019050610625600083018461053b565b92915050565b600060208201905081810360008301526106448161054a565b9050919050565b600060208201905081810360008301526106648161058a565b9050919050565b600060208201905061068060008301846105ca565b92915050565b600082825260208201905092915050565b60006106a2826106b5565b9050919050565b60008115159050919050565b600073ffffffffffffffffffffffffffffffffffffffff82169050919050565b6000819050919050565b60006106ea826106d5565b91507fffffffffffffffffffffffffffffffffffffffffffffffffffffffffffffffff82141561071d5761071c610728565b5b600182019050919050565b7f4e487b7100000000000000000000000000000000000000000000000000000000600052601160045260246000fd5b61076081610697565b811461076b57600080fd5b50565b610777816106d5565b811461078257600080fd5b5056fea2646970667358221220bd7b5f84d52f56dca7fcb9d6d67dfffa0747677adbf41069e0665ffa1ad107aa64736f6c63430008000033",
  "immutableReferences": {},
  "source": "//SPDX-License-Identifier: UNLICENSED\r\npragma solidity ^0.8.0;\r\n\r\n\r\n\r\ncontract Voting {\r\n    struct Vote {\r\n        address voter;\r\n        uint256 candidateId;\r\n        uint256 voteId;\r\n    }\r\n\r\n    mapping(address => bool) public voters;\r\n    mapping(uint256 => Vote) public votes;\r\n    uint256 public voteCount;\r\n\r\n    event VoteCast(address indexed voter, uint256 indexed candidateId, uint256 indexed voteId);\r\n\r\n    constructor() {\r\n        voteCount = 1; // Initialize vote count to 1\r\n    }\r\n\r\n    function vote(uint256 candidateId, uint256 voteId) public {\r\n        require(!voters[msg.sender], \"You have already voted.\");\r\n        voters[msg.sender] = true;\r\n        votes[voteCount] = Vote(msg.sender, candidateId, voteId);\r\n        emit VoteCast(msg.sender, candidateId, voteId);\r\n        voteCount++; // Increment vote count after storing the vote\r\n    }\r\n\r\n    function getVote(uint256 index) public view returns (address, uint256, uint256) {\r\n        require(index < voteCount, \"Invalid vote index.\");\r\n        // Retrieve the vote based on the provided index\r\n        Vote memory _vote = votes[index];\r\n        return (_vote.voter, _vote.candidateId, _vote.voteId);\r\n    }\r\n}",
  "sourcePath": "C:\\Users\\Chris\\Desktop\\bda\\contracts\\Voting.sol",
  "compiler": {
    "name": "solc",
    "version": "0.8.0+commit.c7dfd78e.Emscripten.clang"
  },
  "schemaVersion": "3.4.16",
  "updatedAt": "2024-05-16T18:00:44.077Z",
  "networkType": "ethereum",
  "devdoc": {
    "kind": "dev",
    "methods": {},
    "version": 1
  },
  "userdoc": {
    "kind": "user",
    "methods": {},
    "version": 1
  }
}